:020000040800F2
:10000000700700203903000879340008E93100083E
:10001000753400083F040008B93F000800000000E4
:100020000000000000000000000000003739000858
:1000300043040008000000007D340008393900083E
:100040005303000853030008530300085303000838
:100050005303000853030008530300085303000828
:100060005303000853030008450400085303000825
:100070005303000853030008530300085303000808
:1000800053030008530300085303000853030008F8
:1000900053030008530300085303000853030008E8
:1000A00053030008530300085303000853030008D8
:1000B00053030008530300085303000853030008C8
:1000C00053030008530300085303000853030008B8
:1000D00053030008530300085303000853030008A8
:1000E00053030008530300080000000053030008F6
:1000F0005303000853030008530300085303000888
:100100005303000853030008530300085303000877
:100110005303000853030008530300085303000867
:100120005303000853030008530300085303000857
:100130005303000853030008530300085303000847
:1001400000000000000000000000000000000000AF
:100150005303000853030008530300085303000827
:100160005303000853030008530300085303000817
:100170005303000853030008530300085303000807
:1001800053030008530300085303000853030008F7
:1001900053030008530300085303000853030008E7
:1001A00053030008530300085303000853030008D7
:1001B00053030008530300085303000853030008C7
:1001C00053030008530300085303000853030008B7
:1001D00053030008530300085303000853030008A7
:1001E0005303000853030008530300085303000897
:1001F0005303000853030008530300085303000887
:100200005303000853030008530300085303000876
:100210005303000853030008530300085303000866
:1002200053030008530300085303000800000000B4
:1002300053030008530300080000000053030008A4
:100240005303000853030008530300085303000836
:100250005303000853030008530300085303000826
:100260005303000853030008530300085303000816
:100270005303000853030008530300080000000064
:100280005303000853030008530300080000000054
:10029000000000005303000800F002F800F03CF8F2
:1002A0000AA090E8000C82448344AAF10107DA45D1
:1002B00001D100F031F8AFF2090EBAE80F0013F0E7
:1002C000010F18BFFB1A43F001031847443F000019
:1002D000643F0000103A24BF78C878C1FAD85207AA
:1002E00024BF30C830C144BF04680C6070470000B0
:1002F0000023002400250026103A28BF78C1FBD82F
:10030000520728BF30C148BF0B6070471FB503F0CC
:1003100071FF1FBD10B510BD00F058F81146FFF772
:10032000F5FF03F0FFFE00F076F803B4FFF7F2FFED
:1003300003BC00F07DF800000948804709480047E9
:10034000FEE7FEE7FEE7FEE7FEE7FEE7FEE7FEE785
:10035000FEE7FEE704480549054A064B70470000E2
:10036000113A00089902000870010020700700206F
:1003700070030020700300204FF0000200B5134608
:1003800094469646203922BFA0E80C50A0E80C50B5
:10039000B1F12001BFF4F7AF090728BFA0E80C5066
:1003A00048BF0CC05DF804EB890028BF40F8042B5F
:1003B00008BF704748BF20F8022B11F0804F18BFCC
:1003C00000F8012B7047704770477047754600F082
:1003D0002BF8AE4605006946534620F007008546D7
:1003E00018B020B5FFF7B6FFBDE820404FF000067B
:1003F0004FF000074FF000084FF0000B21F007010D
:10040000AC46ACE8C009ACE8C009ACE8C009ACE84F
:10041000C0098D46704710B50446AFF300802046F2
:10042000BDE81040FFF781BF004870470C01002075
:1004300001491820ABBEFEE726000200704700BF4E
:10044000FEE7704710B5102000F0AEF910BD72B68F
:1004500000BFFEE72DE9F04704460D461646286921
:10046000012800D100BF2868042800D100BF00BFC8
:100470006079012802D10220BDE8F0870120607177
:1004800000BF02202071286804285FD100F0A4FA80
:100490008146FEB911E000F09FFAA0EB09000128A7
:1004A0000BD92068406B5C49084030B1206940F0AE
:1004B0000800206103202071DEE72068406B564968
:1004C00008400028E7D1012000F04AF9A869216816
:1004D00008641EE011E000F07FFAA0EB090001289B
:1004E0000BD92068406B00F0004030B1206940F02B
:1004F0000800206103202071BEE72068406B00F0F7
:1005000000400028E7D1012000F02AF9A8692168FD
:1005100048642068806C06F0100240F2FF31914080
:10052000884306F01002E969914008432168886415
:100530002068C06C06F01002FF219140884306F04D
:100540001002296A914008432168C864286901287B
:100550000FD12068876B06F010011F208840874369
:10056000D5F814A006F010000AFA00F0074320683E
:1005700087632068C76B06F0100107208840874317
:10058000E868012802D14FF000080CE0E868022872
:1005900002D14FF0010806E0A86810B94FF0010839
:1005A00001E04FF00008A9682868084340EA080AFB
:1005B00006F010010AFA01F007432068C7632068BB
:1005C000006806F010024FF4804191408843216892
:1005D00008602068076806F0100140F6FE70884049
:1005E0008743D5F804A006F010010AFA01F007438A
:1005F000206807602068006806F01002C021914062
:100600008843216808600120207100BF00206071CC
:1006100000BF00BF30E700000080002010B5044696
:100620000CB9012010BD207920B90020607120464E
:1006300000F008F8022020710020206101202071C4
:100640000020EFE710B586B00446142101A8FFF79B
:1006500093FE17492068884227D100BF15480068DB
:1006600040F00050134908600846006800F0005050
:10067000009000BF00BF00BF0E480838006840F07F
:1006800001000C49083908600846006800F00100C4
:10069000009000BF00BF10200190032002900020B6
:1006A000039001A9044800F08DF806B010BD0000C9
:1006B00000740040E84402580000025838B504466F
:1006C000002000902068009029B902F10800009DE8
:1006D0002844009004E002F11400009D284400909A
:1006E00000980360002038BD10B5024600BF507965
:1006F000012801D1022010BD0120507100BF02204D
:1007000010711068006801F010040123A340184321
:100710001368186061B91068006800F03E00022894
:1007200016D11068406840F00100136858600FE06F
:100730001068006800F4781301F010040220A04053
:10074000834205D11068406840F002001368586089
:100750000120107100BF0020507100BF00BFCAE728
:1007600070B5044600F038F906462546681C10B1FD
:1007700004480078054400BF00F02EF9801BA84211
:10078000FAD370BD18000020102807D10121044AB7
:10079000117004490978491C024A11707047000021
:1007A000010000200200002010B504460448006843
:1007B000204020B1024804602046FFF7E5FF10BD4D
:1007C00088000058F8B502460B4600216F4DD7E06F
:1007D00001278F401E6806EA0704002C72D01E799C
:1007E00006F00306012E04D01E7906F00306022E41
:1007F00013D190684F000326BE40B0434F00DE681F
:10080000BE4030439060506801268E40B0431E7950
:10081000C6F300168E40304350601E7906F0030682
:10082000032E09D0D0684F000326BE40B0434F00CE
:100830009E68BE403043D0601E7906F00306022E4B
:1008400013D1CF0802F1200656F827004E07F70E05
:100850000F26BE40B0434F07FF0E1E69BE40304317
:10086000CF0802F1200646F8270010684F00032643
:10087000BE40B0431E7906F003064F00BE40304331
:1008800010605E6806F44036002E78D000BF404EFF
:10089000366846F002063E4F3E603E46366806F039
:1008A0000206009600BF00BF3A4E8F0856F8270098
:1008B0008E07370F0F26BE40B043374EB24202D1EB
:1008C00000262EE05BE0354EB24201D1012628E041
:1008D000334EB24201D1022623E0324EB24201D160
:1008E00003261EE0304EB24201D1042619E02F4EFD
:1008F000B24201D1052614E02D4EB24201D10626A6
:100900000FE02C4EB24201D107260AE02A4EB24235
:1009100001D1082605E0294EB24201D1092600E0A6
:100920000A268F073F0FBE4030431A4E8F0846F805
:1009300027004FF0B0463068A0435E6806F480168A
:1009400006B120434FF0B04630607068A0435E6847
:1009500006F4001606B120434FF0B0467060686898
:10096000A0435E6806F4003606B12043686028683C
:10097000A0435E6806F4803606B120432860491C17
:100980001E68CE40002E7FF423AFF8BD80000058D3
:10099000F4440258080400580000025800040258A9
:1009A00000080258000C02580010025800140258A7
:1009B00000180258001C0258002002580024025857
:1009C0000AB1816101E00B0483617047014800684E
:1009D000000C70470010005C014800687047000080
:1009E00010000020034800680349097808440149C1
:1009F00008607047100000201800002010B5032088
:100A000000F0BCF801F042F910490968C1F3032174
:100A10000F4A515C01F01F0120FA01F40B480068F5
:100A200000F00F001146085C00F01F0024FA00F0EF
:100A30000849086008480460002000F00FF808B179
:100A4000012010BD00F036F80020FAE718440258E3
:100A5000FE410008200000201C00002070B5044664
:100A60001148007808B9012070BD0F4800784FF494
:100A70007A71B1FBF0F00D490968B1FBF0F5284639
:100A800002F0EDF808B10120EEE7102C07D20022A9
:100A90002146501E00F034F80548046001E00120B2
:100AA000E2E70020E0E70000180000201C00002022
:100AB0001400002008B500BF0648006840F002009E
:100AC000044908600846006800F00200009000BF7A
:100AD00000BF08BDF44402580146084600280DDB5B
:100AE00000BF00BF00F01F0301229A4043099B0092
:100AF00003F1E023C3F8002100BF00BF00BF70472F
:100B00002DE9F05F80460D46164603F057FA07467A
:100B100039462A46334601F00700C0F1070ABAF108
:100B2000040F02D94FF0040A01E0C0F1070AD146D0
:100B300000F1040ABAF1070F02D24FF0000A01E0F7
:100B4000A0F1030AD4464FF0010A0AFA09FAAAF101
:100B5000010A0AEA020A0AFA0CFA4FF0010B0BFA30
:100B60000CFBABF1010B0BEA030B4AEA0B04214629
:100B7000404603F02BFABDE8F09F000000BF00F0F4
:100B80000702064B19684FF6FF031940044B0B434D
:100B900043EA0221014B196000BF70470CED00E0F1
:100BA0000000FA0570B5044615480068C0F38000DF
:100BB00048B91348006800F00700A04201D00120A6
:100BC00070BD0020FCE70E48006820F007002043BD
:100BD0000B490860FFF700FF054607E0FFF7FCFE42
:100BE000401BB0F57A7F01D90120E9E704480838B5
:100BF0000068C0F340300028F0D00020E0E700009B
:100C00000C4802582DE9F04104460025A8464FF053
:100C10000062D4E9001011400020134659404040C2
:100C2000014331D1A06E48B1B0F5801F0DD0B0F5B1
:100C3000001F11D0B0F5401F16D114E0F94800682C
:100C400040F40030F749086010E0022104F1080088
:100C500002F016FC054609E0022104F1280002F02A
:100C6000C1FC054602E001E0012500BF00BF55B907
:100C7000EC482430006820F44010A16E0843E94994
:100C80002431086000E0A8464FF48073D4E90010D6
:100C9000194000205940404001432ED1A06D052845
:100CA0001BD2DFE800F0030A11181900DD480068C4
:100CB00040F40030DB49086011E0002104F1080035
:100CC00002F0DEFB05460AE0002104F1280002F0F4
:100CD00089FC054603E002E001E0012500BF00BFFA
:100CE00055B9D0482430006820F00700A16D0843B2
:100CF000CC492431086000E0A8464FF40073D4E9E1
:100D000000101940002059404040014334D1E06DAB
:100D1000802818D003DC40B140281DD10CE0C02849
:100D200018D0B0F5807F17D115E0BE48006840F4B8
:100D30000030BC49086011E0002104F1080002F015
:100D40009FFB05460AE0002104F1280002F04AFC5E
:100D5000054603E002E001E0012500BF00BF55B9F0
:100D6000B0482430006820F4E070E16D0843AD49DC
:100D70002431086000E0A8464FF48063D4E90010F5
:100D80001940002059404040014339D1D4F8A8000F
:100D9000B0F5800F1AD004DC50B1B0F5001F1ED1A1
:100DA0000DE0B0F5C00F18D0B0F5000F17D115E069
:100DB0009C48006840F400309A49086011E0002126
:100DC00004F1080002F05CFB05460AE0002104F192
:100DD000280002F007FC054603E002E001E00125DF
:100DE00000BF00BF5DB98F482C30006820F4600060
:100DF000D4F8A81008438B492C31086000E0A846BD
:100E00004FF40062D4E9001011400020134659400D
:100E10004040014339D1D4F8AC00B0F1007F1AD082
:100E200004DC50B1B0F1807F1ED10DE0B0F1407F05
:100E300018D0B0F1806F17D115E07A48006840F4FF
:100E400000307849086011E0002104F1080002F048
:100E500017FB05460AE0002104F1280002F0C2FB5E
:100E6000054603E002E001E0012500BF00BF5DB9D7
:100E70006C482C30006820F0E060D4F8AC100843D7
:100E800068492C31086000E0A8464FF00073D4E9AF
:100E900000011840002158404940084328D1E06C27
:100EA000A8B1102804D0202809D0302810D10DE096
:100EB0005C48006840F400305A4908600AE00221AA
:100EC00004F1080002F0DCFA054603E002E001E06C
:100ED000012500BF00BF55B952482030006820F0FE
:100EE0003000E16C08434F492031086000E0A8461B
:100EF0004FF48053D4E9001019400020594040407D
:100F0000014337D1206EB0F5005F1AD004DC50B138
:100F1000B0F5805F1ED10DE0B0F5405F18D0B0F5A0
:100F2000804F17D115E03F48006840F400303D493C
:100F3000086011E0002104F1080002F0A1FA054662
:100F40000AE0002104F1280002F04CFB054603E012
:100F500002E001E0012500BF00BF55B9314824304F
:100F6000006820F4E040216E08432E4924310860D7
:100F700000E0A8464FF40053D4E9001019400020C7
:100F800059404040014335D1606EB0F5403F1ED01E
:100F900007DC68B1B0F5803F0BD0B0F5003F19D148
:100FA0000EE0B0F5802F13D0B0F5A02F12D110E0D5
:100FB00012E0012104F1080002F062FA05460BE09C
:100FC000012104F1280002F00DFB054604E003E0D6
:100FD00002E001E0012500BF00BF55B911482430EF
:100FE000006820F4E020616E08430E492431086057
:100FF00000E0A8464FF48043D4E9000118400021E6
:1010000058404940084337D1D4F8B000B0F1405FB0
:1010100020D009DC78B1B0F1805F0DD0B0F1005F75
:101020001BD110E02C440258B0F1804F13D0B0F126
:10103000A04F12D110E012E0012104F1080002F0EB
:101040001FFA05460BE0012104F1280002F0CAFA5C
:10105000054604E003E002E001E0012500BF00BF17
:101060004DB9FE48006820F0E040D4F8B0100843C5
:10107000FA49086000E0A8464FF40042D4E90010A5
:1010800011400020134659404040014329D1206FB0
:10109000B0B1B0F1805F03D0B0F1005F11D108E0D2
:1010A000EE482C38006840F40030EC492C390860D8
:1010B00009E0012104F1080002F0E2F9054602E02E
:1010C00001E0012500BF00BF55B9E44808380068B9
:1010D00020F04050216F0843E0490839086000E0E3
:1010E000A8464FF08072D4E900101140002013464A
:1010F0005940404001432AD1A06CB8B1012804D026
:1011000002280BD0032812D10FE0D4482C380068F5
:1011100040F40030D1492C3908600AE0022104F182
:10112000080002F0ADF9054603E002E001E0012508
:1011300000BF00BF55B9C9480C38006820F0030053
:10114000A16C0843C5490C39086000E0A8464FF47B
:101150008002D4E900011040002113465840494064
:1011600008437DD1BE48006840F48070BC490860E7
:10117000FFF732FC064606E0FFF72EFC801B6428D2
:1011800001D9032505E0B648006800F48070002806
:10119000F2D000BF85BBB1481830006800F4407041
:1011A000B4F8B41001F44071884213D0AB48183041
:1011B000006820F44077A9481830006840F4803077
:1011C000A649183108600846006820F4803008609D
:1011D00008460760D4F8B400B0F5807F15D1FFF75A
:1011E000FBFB064609E0FFF7F7FB801B41F2883165
:1011F000884202D9032507E038E098481830006893
:10120000C0F340000028EED000BF55BB00BFB4F8CB
:10121000B40000F44070B0F5407F0ED18F484838DC
:10122000006820F47C518F4AD4F8B400104041EAA1
:1012300010108A494839086007E088484838006833
:1012400020F47C508549483908608448183000688B
:10125000B4F8B410C1F30B0108438049183101E020
:1012600005E001E0086002E0A84600E0A84601228F
:10127000D4E900011040002113465840494008437A
:1012800030D1E06F18281AD005DC48B1082808D002
:10129000102817D10CE0202812D0282812D110E0F5
:1012A00012E0012104F1080002F0EAF805460BE023
:1012B000012104F1280002F095F9054604E003E05D
:1012C00002E001E0012500BF00BF55B96348001FDF
:1012D000006820F03800E16F08436049091F08608A
:1012E00000E0A8460222D4E9000110400021134684
:1012F00058404940084329D1A06F062816D2DFE89C
:1013000000F003040B12131412E0012104F1080091
:1013100002F0B6F805460BE0012104F1280002F0C6
:1013200061F9054604E003E002E001E0012500BFA9
:1013300000BF55B94948001F006820F00700A16FA1
:1013400008434649091F086000E0A8460423D4E981
:1013500000101940002059404040014329D1D4F8E1
:101360009400062816D2DFE800F003040B121314D1
:1013700012E0012104F1080002F082F805460BE0BA
:10138000012104F1280002F02DF9054604E003E0F4
:1013900002E001E0012500BF00BF4DB92F48006801
:1013A00020F00700D4F8941008432C49086000E0AE
:1013B000A8462023D4E900011840002158404940A4
:1013C000084337D1D4F89000B0F1405F1ED007DC5D
:1013D00068B1B0F1805F0BD0B0F1005F19D10EE0C1
:1013E000B0F1804F13D0B0F1A04F12D110E012E055
:1013F000002104F1080002F043F805460BE0022149
:1014000004F1280002F0EEF8054604E003E002E0F3
:1014100001E0012500BF00BF5DB91048001F006852
:1014200020F0E040D4F8901008430C49091F0860F0
:1014300000E0A8464023D4E900101940002059409C
:10144000404001433CD1D4F89C00B0F5406F25D01A
:101450000EDCA0B1B0F5806F12D005E05844025800
:1014600000480258FFFCFF0FB0F5006F19D10EE0E5
:10147000B0F5805F13D0B0F5A05F12D110E012E09C
:10148000002104F1080001F0FBFF05460BE00221FA
:1014900004F1280002F0A6F8054604E003E002E0AB
:1014A00001E0012500BF00BF4DB9FE48006820F4EF
:1014B000E050D4F89C100843FA49086000E0A846C0
:1014C0008023D4E9001019400020594040400143D6
:1014D00035D1D4F8A000B0F5C04F1ED007DC68B1FC
:1014E000B0F5005F0BD0B0F5804F19D10EE0B0F52C
:1014F000004F13D0B0F5204F12D110E012E00021C0
:1015000004F1080001F0BCFF05460BE0022104F1E4
:10151000280002F067F8054604E003E002E001E07D
:10152000012500BF00BF4DB9DE48006820F46040CF
:10153000D4F8A0100843DB49086000E0A84608235F
:10154000D4E900101940002059404040014317D110
:10155000D4F88400B0F5805F07D1022104F128009F
:1015600002F040F808B14FF00108CE48001F0068B3
:1015700020F44050D4F884100843CA49091F086079
:101580001023D4E900101940002059404040014385
:1015900015D1D4F89800B0F5807F07D1022104F16D
:1015A000280002F01FF808B14FF00108BD4800689C
:1015B00020F44070D4F898100843BA4908604FF4FA
:1015C0000022D4E900011040002113465840494050
:1015D000084327D1D4F8A40030B1B0F5803F0AD039
:1015E000B0F5003F0FD10DE0002104F1080001F03B
:1015F00047FF054609E0022104F1280001F0F2FF4F
:10160000054602E001E0012500BF00BF4DB9A54835
:10161000006820F44030D4F8A4100843A1490860C1
:1016200000E0A8464FF48023D4E9000118400021CF
:101630005840494008432DD1D4F88800B0F5801FA8
:1016400006D0B0F5001F0CD0B0F5401F11D10FE04F
:1016500094482C38006840F4003092492C390860D6
:1016600009E0012104F1280001F0BCFF054602E079
:1016700001E0012500BF00BF5DB98A48001F006876
:1016800020F44010D4F8881008438649091F0860E8
:1016900000E0A8464FF48032D4E900011040002158
:1016A000134658404940084325D1206D18B1B0F584
:1016B000803F10D108E07B482C38006840F40030AF
:1016C00078492C39086008E0022104F1080001F093
:1016D000D7FE054601E0012500BF00BF55B971489E
:1016E0000C38006820F48030216D08436D490C39B6
:1016F000086000E0A8464FF00052D4E90010114005
:101700000020134659404040014307D1022104F113
:10171000280001F067FF08B14FF001084FF40033D3
:10172000D4E900011840002158404940084329D11C
:10173000D4F88000A0B1B0F5807F06D0B0F5007F6E
:101740000CD0B0F5407F0CD109E056482C38006829
:1017500040F4003053492C39086004E003E002E013
:1017600001E0012500BF00BF5DB94E48001F0068C1
:1017700020F44070D4F8801008434A49091F0860DB
:1017800000E0A8464FF48012D4E900101140002078
:10179000134659404040014309D142480838006887
:1017A00020F00040616F08433E49083908604FF05F
:1017B0008052D4E9001011400020134659404040A7
:1017C00001430AD137484838006820F48040D4F8F3
:1017D000B81008433349483908604FF40012D4E97F
:1017E000001011400020134659404040014309D1E8
:1017F0002C480838006820F08070E16E08432949C1
:10180000083908604FF08042D4E9001011400020F0
:10181000134659404040014311D100BF2148483888
:10182000006820F400401F494839086008460068F5
:10183000D4F8BC1008431B494839086000BF4FF07A
:101840000042D4E9001011400020134659404040A6
:10185000014309D113480C38006820F04050616DF5
:10186000084310490C3908604FF40002D4E9001015
:101870001140002013465940404001430AD1094815
:10188000001F006820F44000D4F88C10084305497C
:10189000091F0860012300216068184001224940A7
:1018A000504001E058440258014306D104F10800B9
:1018B00001F0E6FD054605B1A84602220021606858
:1018C000104049405040014307D1012104F1080074
:1018D00001F0D6FD054605B1A84604230020616845
:1018E0001940042240405140084307D1022104F12D
:1018F000080001F0C5FD054605B1A84608230021F2
:1019000060681840082249405040014306D104F164
:10191000280001F067FE054605B1A8461022002107
:101920006068104049405040014307D1012104F153
:10193000280001F057FE054605B1A84620220020E8
:101940006168114040405140084307D1022104F131
:10195000280001F047FE054605B1A846B8F1000F82
:1019600002D10020BDE8F0810120FBE72DE9F04124
:1019700004460D4614B90120BDE8F081BD48006859
:1019800000F00F00A8420ED2BA48006820F00F0005
:101990002843B84908600846006800F00F00A842D4
:1019A00001D00120E8E7207800F0040004280ED1DF
:1019B000B1492069096801F07001884207D9AE4831
:1019C000006820F0700021690843AB490860207866
:1019D00000F00800082811D1A749091D60690968AD
:1019E00001F07001884209D9A348001D006820F069
:1019F000700061690843A049091D0860207800F063
:101A00001000102811D19C49091DA069096801F432
:101A1000E061884209D99848001D006820F4E06020
:101A2000A16908439449091D0860207800F020004E
:101A3000202811D190490831E069096801F070014E
:101A4000884209D98C480830006820F07000E169AC
:101A50000843894908310860207800F00200022814
:101A60000ED18549E068096801F00F01884207D965
:101A70008148006820F00F00E16808437E49086053
:101A8000207800F00100002850D07B48006820F446
:101A90007060A1680843784908606068022807D12F
:101AA000754818380068C0F34040F8B9012063E772
:101AB0006068032807D1704818380068C0F3406098
:101AC000A0B9012058E76068012807D16A48183892
:101AD0000068C0F3002048B901204DE76648183877
:101AE0000068C0F3800008B9012045E76248083863
:101AF000006820F00700616808435F490839086002
:101B0000FEF76AFF064608E0FEF766FF801B41F21B
:101B10008831884201D903202EE7574808380068E9
:101B200000F038006168B0EBC10FEDD1207800F013
:101B3000020002280ED15049E068096801F00F0147
:101B4000884207D24C48006820F00F00E168084343
:101B5000494908604748006800F00F00A8420ED9C4
:101B60004448006820F00F002843424908600846B6
:101B7000006800F00F00A84201D00120FCE62078A8
:101B800000F0040004280ED13B492069096801F0E7
:101B90007001884207D23848006820F0700021693F
:101BA000084335490860207800F00800082811D162
:101BB0003149091D6069096801F07001884209D244
:101BC0002D48001D006820F07000616908432A4913
:101BD000091D0860207800F01000102811D1264956
:101BE000091DA069096801F4E061884209D2224810
:101BF000001D006820F4E060A16908431E49091D2A
:101C00000860207800F02000202811D11A490831FE
:101C1000E069096801F07001884209D2164808306D
:101C2000006820F07000E16908431349083108603A
:101C300000F02CF810490968C1F303210F4A515CE8
:101C400001F01F0120FA01F70B48006800F00F00B7
:101C50001146085C00F01F0027FA00F008490860F0
:101C60000848076008480068FEF7F8FE80464046CE
:101C700082E600000020005218440258FE4100088D
:101C8000200000201C00002014000020F0B5824E2F
:101C9000366806F0380636B1082E15D0102E15D04D
:101CA000182E7DD114E07C4E103E3668C6F34016E7
:101CB00046B1794E103E3668C6F3C107774E26FA14
:101CC00007F000E07548E5E07548E3E07548E1E0BD
:101CD000714E1836366806F003046F4E18363668B3
:101CE000C6F305116C4E1C36366806F001056A4EC7
:101CF00024363668C6F3CC0616FB05F601EE106AEC
:101D0000B8EE410A002971D024B1012C50D0022C28
:101D10006DD16DE0604E103E3668C6F340163EB39E
:101D20005D4E103E3668C6F3C1075C4E26FA07F3D7
:101D300001EE103AF8EE411A01EE101AB8EE411A0F
:101D400081EE812A9FED581AC0EE011A524E2036BC
:101D50003668C6F3080601EE106AB8EE411A31EE95
:101D6000811AF7EE001A31EE211A62EE010A1EE026
:101D700001EE101AB8EE411ADFED4C1A81EE812AFD
:101D80009FED491AC0EE011A434E20363668C6F35D
:101D9000080601EE106AB8EE411A31EE811A00E031
:101DA00076E0F7EE001A31EE211A62EE010A5BE0EE
:101DB00001EE101AB8EE411A9FED3D2AC2EE011A4B
:101DC0009FED391A80EE012A334E20363668C6F36D
:101DD000080601EE106AB8EE411A32EE011AB7EEAB
:101DE000002A31EE021A61EE810A3DE04EE01DE06C
:101DF00001EE101AB8EE411ADFED2E1A81EE812A9B
:101E00009FED291AC0EE011A234E20363668C6F31C
:101E1000080601EE106AB8EE411A31EE811AF7EEAB
:101E2000001A31EE211A62EE010A1DE001EE101ACD
:101E3000B8EE411A9FED1E2AC2EE011A9FED1A1A42
:101E400080EE012A144E20363668C6F3080601EEED
:101E5000106AB8EE411A32EE011AB7EE002A31EEDE
:101E6000021A61EE810A00BF00BF0B4E20363668B1
:101E7000C6F34626721C01EE102AB8EE411AC0EED7
:101E8000811ABCEEE11A11EE100A00E0002001E018
:101E9000034800BF00BFF0BD104402580090D003BB
:101EA00000093D0040787D01000000460024744C8C
:101EB0000024744A20BCBE4B2DE9F047044614B9F7
:101EC0000120BDE8F087207800F00100002870D0E4
:101ED000FA48006800F03808F8481830D0F8009048
:101EE000B8F1100F06D0B8F1180F0FD109F00300A8
:101EF00002280BD1F14810380068C0F34040002898
:101F00006AD06068002867D10120DAE700BF606806
:101F1000B0F5803F08D1E9481038006840F48030BF
:101F2000E649103908602EE0606868B9E348103867
:101F3000006820F48030E1491039086008460068E4
:101F400020F4802008601EE06068B0F5A02F0DD15D
:101F5000DA481038006840F48020D8491039086009
:101F60000846006840F4803008600CE0D348103820
:101F7000006820F48030D1491039086008460068B4
:101F800020F48020086000BF606898B1FEF724FD4F
:101F9000054606E0FEF720FD401B642801D903201A
:101FA0008FE7C64810380068C0F340400028F1D0E1
:101FB00012E012E0FEF710FD054606E0FEF70CFD0C
:101FC000401B642801D903207BE7BC481038006817
:101FD000C0F340400028F1D100BF207800F002009B
:101FE000022874D1B548006800F03808B3481830AA
:101FF000D0F80090B8F1000F05D0B8F1180F56D105
:1020000009F00300D0BBAD4810380068C0F3800071
:1020100018B1E06808B9012053E7A84810380068F3
:1020200020F01900E1680843A44910390860FEF760
:10203000D3FC054606E0FEF7CFFC401B022801D981
:1020400003203EE79D4810380068C0F38000002858
:10205000F1D000BFFEF7BAFC41F2030188421AD862
:10206000206940280BD195480C38006820F47C305A
:1020700040F4003091490C39086017E017E08F48B0
:102080000C38006820F47C30216940EA01308B492B
:102090000C3908600AE089480C38006820F0FE40DE
:1020A000217C40EA016085490C39086066E0E068FF
:1020B00088B382481038006820F01900E1680843AE
:1020C0007E4910390860FEF787FC054607E056E0B8
:1020D000FEF782FC401B022801D90320F1E6774875
:1020E00010380068C0F380000028F1D000BFFEF770
:1020F0006DFC41F2030188421AD8206940280BD1B7
:102100006E480C38006820F47C3040F400306B4995
:102110000C39086017E017E068480C38006820F4B4
:102120007C30216940EA013064490C3908600AE0DA
:1021300062480C38006820F0FE40217C40EA0160D3
:102140005E490C39086019E05C481038006820F0DE
:1021500001005A4910390860FEF73EFC054606E0CA
:10216000FEF73AFC401B022801D90320A9E6534898
:1021700010380068C0F380000028F1D100BF20783B
:1021800000F0100010287CD14C48006800F038089E
:102190004A481830D0F80090B8F1080F06D0B8F1CE
:1021A000180F3DD109F00300012839D143481038F8
:1021B0000068C0F3002020B1E069802801D0012030
:1021C0007FE600BFFEF702FC41F2030188421AD805
:1021D000206A20280AD139480C38006820F0F840DD
:1021E00040F0804035490C39086018E033480C381D
:1021F000006820F0F84094F8201040EA81602F49F0
:102200000C3908600BE02D48001F006820F07C505E
:1022100094F8201040EA01602849091F086066E030
:10222000E06978B325481038006840F08000234901
:1022300010390860FEF7D0FB054606E0FEF7CCFB40
:10224000401B022801D903203BE61C4810380068D7
:10225000C0F300200028F1D000BFFEF7B7FB41F229
:10226000030188421CD8206A20280CD113480C385E
:10227000006820F0F84040F0804010490C390860B8
:102280001AE035E01CE00D480C38006820F0F840FA
:1022900094F8201040EA816008490C3908600BE08E
:1022A0000648001F006820F07C5094F8201040EA97
:1022B00001600249091F086019E00000104402583B
:1022C000FA48006820F08000F8490860FEF784FBB7
:1022D000054606E0FEF780FB401B022801D90320DB
:1022E000EFE5F2480068C0F300200028F2D100BFFB
:1022F000207800F00800082836D16069D0B1EB489A
:102300007430006840F00100E84974310860FEF75D
:1023100063FB054606E0FEF75FFB401B022801D980
:102320000320CEE5E14874300068C0F34000002887
:10233000F1D019E0DD487430006820F00100DB497D
:1023400074310860FEF748FB054606E0FEF744FBE3
:10235000401B022801D90320B3E5D448743000683B
:10236000C0F340000028F1D1207800F020002028A0
:1023700030D1A069B8B1CD48006840F48050CB4955
:102380000860FEF729FB054606E0FEF725FB401B2B
:10239000022801D9032094E5C4480068C0F3403006
:1023A0000028F2D016E0C148006820F48050BF49F0
:1023B0000860FEF711FB054606E0FEF70DFB401B2B
:1023C000022801D903207CE5B8480068C0F34030FA
:1023D0000028F2D1207800F0040004287DD1B44810
:1023E000006840F48070B2490860FEF7F5FA0546CF
:1023F00006E0FEF7F1FA401B642801D9032060E5EE
:10240000AB48006800F480700028F2D000BFA068DC
:10241000012808D1A5487030006840F00100A349A8
:10242000703108602DE0A06868B9A048703000687D
:1024300020F001009D49703108600846006820F0D6
:10244000040008601DE0A06805280DD19748703091
:10245000006840F004009549703108600846006843
:1024600040F0010008600CE090487030006820F0F7
:1024700001008E49703108600846006820F00400B1
:10248000086000BFA068A0B1FEF7A6FA054608E004
:10249000FEF7A2FA401B41F28831884201D903209D
:1024A0000FE5824870300068C0F340000028EFD08C
:1024B00013E0FEF791FA054608E0FEF78DFA401B9F
:1024C00041F28831884201D90320FAE4774870301C
:1024D0000068C0F340000028EFD1606A00287DD07A
:1024E00072481030006800F03800182877D0606A11
:1024F000022875D16D48006820F080706B49086033
:10250000FEF76AFA054606E0FEF766FA401B022867
:1025100001D90320D5E465480068C0F34060002875
:10252000F2D100BFD4E90A1041EA00105F49283116
:10253000096840F2F332914308435C49283108604E
:10254000208E401EC0F30800616B491E4FF47E428E
:1025500002EA41210843218F491ED20102EA0141CA
:1025600008433C21095D491E120202EA0161084349
:102570004E493031086000BF081F006820F001009C
:10258000091F08604948343000684FF6F8718843E5
:10259000A16C40EAC10045493431086043482C3001
:1025A000006820F00C00216C084340492C31086081
:1025B0000846006820F00200616C08433B492C315A
:1025C00008600846006840F48030086008460068EB
:1025D00040F4003008600846006802E093E038E00C
:1025E0001FE040F4802008600846006840F00100C9
:1025F00008602E48006840F080702C490860FEF7A3
:10260000EBF9054606E0FEF7E7F9401B022801D981
:10261000032056E425480068C0F340600028F2D04B
:1026200071E02248006820F0807020490860FEF7C1
:10263000D3F9054606E0FEF7CFF9401B022801D981
:1026400003203EE419480068C0F340600028F2D13E
:1026500059E0164828300768144830300668606A28
:10266000012821D007F00301A06A81421CD1C7F3E1
:102670000511E06A884217D1C6F30801206B401E9D
:10268000814211D1606B401EC6F3462188420BD1B6
:10269000A06B401EC6F30641884205D1E06B401E88
:1026A000C6F30661884205D001200AE400440258BE
:1026B0000048025815480068C0F3CC07A06CB84227
:1026C00021D012480838006820F001000F4908396D
:1026D0000860FEF781F9054600BFFEF77DF9401B53
:1026E000FBD00A4800684FF6F8718843A16C40EAB5
:1026F000C1000649086005480838006840F001003C
:1027000002490839086000204AE4000034440258B5
:1027100070B504460CB9012070BD606A00B900BFF5
:102720000021A1626349206888420CD06249206878
:10273000884208D061492068884204D0E0680F28A8
:1027400001D90120E8E7204601F0C7F805465949BC
:102750002068884209D058492068884205D05749E6
:102760002068884201D0082D0DD85249206888423F
:1027700007D051492068884203D0504920688842D8
:1027800003D1102D01D90120C6E794F8810028B9A2
:10279000002084F88000204600F092F8022084F89F
:1027A00081002068006820F001002168086020682E
:1027B000806800F4F816A069B0F1806F11D16068EC
:1027C000B0F5800F01D1A06B28B1606848B9A06B4B
:1027D000B0F1805F05D12068006840F48050216826
:1027E0000860606800F48000B0F5800F0BD1E068ED
:1027F000072808D32068006820F48070216D084302
:102800002168086005E02068006820F48070216875
:102810000860A16AE06908433043E16B0843E1685E
:10282000084321688860616A606B0843A16B0843B4
:10283000A16908432169084361690843216A084383
:1028400061680843E16C0843A1680843A16C084330
:10285000A16D08432168C860606878B92068806805
:1028600020F4C05040F400602168886020688068CF
:1028700020F4C06040F48060216888602068006DAA
:1028800020F0010021680865606800F48000B0F560
:10289000800F07D12068C06820F00040616D0843B8
:1028A0002168C8600020C4F88400012084F88100F9
:1028B000002031E70030014000380040003C00407B
:1028C00010B5B8B00446142132A8FDF755FDC0215B
:1028D00002A8FDF751FD1E492068884235D18114B8
:1028E0000020CDE902101A9002A8FEF78BF908B17A
:1028F000FDF7ADFD00BF1748006840F48050154952
:1029000008600846006800F48050019000BF00BFD6
:1029100000BF10481038006840F001000D49103920
:1029200008600846006800F00100019000BF00BF89
:10293000E020329002203390002034903590052022
:10294000369032A90448FDF73DFF38B010BD0000B5
:1029500000300140F0440258000002582DE9FF5FAA
:1029600004468A4693461E460E9D0020039020682A
:102970002030029020683030019000BF94F8800031
:10298000012803D1022004B0BDE8F09F012084F8A3
:10299000800000BFFEF720F881463746B04694F825
:1029A0008100012808D00220039000BF002084F895
:1029B000800000BF0398E6E7BAF1000F03D0BBF137
:1029C000000F00D046B90120039000BF002084F81A
:1029D000800000BF0398D6E7052084F8810000201E
:1029E000C4F88400C4F864B0A4F86A60A4F868600D
:1029F000C4F85CA0A4F86260A4F860602067606717
:102A00002068C06820F4C0202168C8602068406841
:102A10006FF30F003043216848602068006840F081
:102A20000100216808606068B0F5800F05D120685A
:102A3000006840F4007021680860E0680F284ED9F3
:102A400047E02068406900F0020002280ED16FB113
:102A5000E06D006821680862E06D001DE065B4F873
:102A60006200401EA4F86200B4F8627020684069F9
:102A700048F20801084080B1B8F1000F0DD020687D
:102A8000006B616E0860606E001D6066B4F86A00DD
:102A9000401EA4F86A00B4F86A80FDF79DFFA0EB21
:102AA0000900A84201D3681C00B995B9204600F07E
:102AB000A9FE00BF002084F8800000BFD4F8840085
:102AC00040F48070C4F88400012084F88100032061
:102AD00059E7002FB5D1B8F1000FB2D19EE0E06800
:102AE00007284CD945E02068406900F00200022820
:102AF0000DD167B154F85C0F0188029801802068FD
:102B0000801C2060E088401EE080E7885C3C2068F4
:102B1000406900F0010080B1B8F1000F0DD00198BC
:102B2000008854F8641F08802068801C2060E088BA
:102B3000401EE080B4F80680643CFDF74DFFA0EB3A
:102B40000900A84201D3681C00B995B9204600F0DD
:102B500059FE00BF002084F8800000BFD4F8840034
:102B600040F48070C4F88400012084F881000320C0
:102B700009E7002FB7D1B8F1000FB4D14EE048E01B
:102B80002068406900F0020002280FD177B1E06DA3
:102B90000078216881F82000E06D401CE065B4F801
:102BA0006200401EA4F86200B4F8627020684069B8
:102BB00000F0010088B1B8F1000F0ED0206890F845
:102BC0003000616E0870606E401C6066B4F86A0088
:102BD000401EA4F86A00B4F86A80FDF7FDFEA0EB81
:102BE0000900A84201D3681C00B995B9204600F03D
:102BF00009FE00BF002084F8800000BFD4F88400E4
:102C000040F48070C4F88400012084F8810003201F
:102C1000B9E6002FB4D1B8F1000FB1D12B46002294
:102C200008212046CDF8009000F064FE28B1D4F8C9
:102C3000840040F02000C4F88400204600F0E2FD4B
:102C400000BF002084F8800000BF012084F88100CC
:102C5000D4F8840008B1012095E6039893E670B596
:102C600004462546681EB0F1807F01D301200FE0A5
:102C7000681E4FF0E02148610F214FF0FF3001F056
:102C8000A5F900204FF0E0218861072008610020AD
:102C900070BD000010B50346002200BF93F83C0051
:102CA000012801D1022010BD012083F83C0000BFA3
:102CB00022F0FF00CC6840EA040222F440708C68E5
:102CC00040EA040222F480604C6840EA040222F4E4
:102CD00000600C6840EA040222F480500C6940EA6B
:102CE000040222F400504C6940EA040222F48040BD
:102CF0008C6A40EA040222F470200C8B40EA044201
:102D00000F4C1868A04203D00E4C1868A0420ED198
:102D100022F470008C8C40EA045222F08070CC695E
:102D200040EA040222F000700C6A40EA04021868CB
:102D3000426400BF002083F83C0000BF00BFB2E740
:102D4000000001400004014030B502460B4600BFC0
:102D500092F83C00012801D1022030BD012082F808
:102D60003C0000BF022082F83D00106841681068F6
:102D70008468214D1068A84203D0204D1068A842F5
:102D800003D121F470015868014321F070011868E3
:102D9000014310684160184D1068A8421BD01068AC
:102DA000B0F1804F17D0164D1068A84213D0154DC2
:102DB0001068A8420FD0144D1068A8420BD00F4DD8
:102DC0001068A84207D0114D1068A84203D0104DDA
:102DD0001068A84205D124F0800498680443106864
:102DE0008460012082F83D0000BF002082F83C0092
:102DF00000BF00BFB1E70000000001400004014037
:102E00000004004000080040000C00400018004092
:102E10000040014010B586B00446142101A8FDF71A
:102E2000ABFA1149206888421BD100BF0F480068E7
:102E300040F010000D4908600846006800F01000DE
:102E4000009000BF00BF4FF4D440019002200290D8
:102E50000020039004900120059001A90448FDF78B
:102E6000B1FC06B010BD000000000140E044025873
:102E7000001002582DE9F04104460D461646002781
:102E800000BF94F83C00012802D10220BDE8F08187
:102E9000012084F83C0000BF0C2E51D005DC4EB15F
:102EA000042E1ED0082E7AD133E0102E60D0142EBE
:102EB000F9D175E02946206800F0CAFE20688069D3
:102EC00040F00800216888612068806920F00400D3
:102ED00021688861206880692969084321688861C0
:102EE00078E02946206800F009FF2068806940F4F6
:102EF0000060216888612068806920F48060216812
:102F0000886120688069296940EA01202168886118
:102F100060E02946206800F04BFF2068C06940F05F
:102F200008002168C8612068C06920F00400216899
:102F3000C8612068C069296908432168C86149E0FF
:102F40002946206800F08EFF2068C06940F40060C8
:102F50002168C8612068C06920F480602168C86168
:102F60002068C069296940EA01202168C86131E010
:102F70002946206800F0B0FF2068406D40F008004E
:102F8000216848652068406D20F00400216848658C
:102F90002068406D29690843216848651AE017E0F8
:102FA0002946206800F0D0FF2068406D40F40060A2
:102FB000216848652068406D20F48060216848657C
:102FC0002068406D296940EA01202168486501E0D8
:102FD000012700BF00BF00BF002084F83C0000BFF5
:102FE000384653E710B504460CB9012010BD94F8DB
:102FF0003D0028B9002084F83C00204600F02AF863
:10300000022084F83D00211D206800F0A9FD012068
:1030100084F8480000BF84F83E0001213F2001559C
:1030200040200155412001554220015543200155C2
:1030300000BF00BF012084F8440045200155462010
:1030400001554720015500BF012084F83D000020B4
:10305000CCE7000008B5094A016891420DD100BFD4
:103060000749096841F00101054A116011460968E4
:1030700001F00101009100BF00BF08BD0000014048
:10308000F044025870B504460D4615B994F83E0058
:1030900015E0042D02D13F20005D10E0082D02D183
:1030A0004020005D0BE00C2D02D14120005D06E0C8
:1030B000102D02D14220005D01E04320005D012877
:1030C00001D0012070BD1DB9022084F83E001AE035
:1030D000042D03D102213F20015514E0082D03D116
:1030E0000221402001550EE00C2D03D10221412088
:1030F000015508E0102D03D102214220015502E0C4
:1031000002214320015501222946206800F08EFD4E
:103110002B49206888420FD02A49206888420BD06A
:1031200029492068884207D028492068884203D06E
:1031300027492068884201D1012000E0002028B101
:103140002068406C40F40040216848641C492068B5
:1031500088421BD02068B0F1804F17D01D492068ED
:10316000884213D01C49206888420FD01B49206830
:1031700088420BD013492068884207D0184920683C
:10318000884203D010492068884210D120688068A6
:10319000144900EA0106062E0FD0B6F5803F0CD088
:1031A0002068006840F001002168086005E02068A0
:1031B000006840F0010021680860002082E70000FC
:1031C0000000014000040140004001400044014073
:1031D000004801400004004000080040000C00408E
:1031E000001800400700010000BFFEE700B589B0ED
:1031F00024216846FDF7C0F80D480E4908600846CE
:10320000FDF70CFA08B1FDF722F9002000900190BB
:103210000290012003900020049000226946054896
:10322000FDF718F908B1FDF712F909B000BD00006B
:10323000007400402400002000B587B0142102A8CB
:10324000FDF79AF800BF2D48006840F080002B4938
:1032500008600846006800F08000019000BF00BFD1
:1032600000BF0846006840F001000860084600689A
:1032700000F00100019000BF00BF00BF08460068D9
:1032800040F0040008600846006800F00400019067
:1032900000BF00BF00BF0846006840F01000086093
:1032A0000846006800F01000019000BF00BF002237
:1032B0004FF400411248FDF783FB102002904FF4B9
:1032C000041003900120049002A90E48FDF77AFA39
:1032D0004FF40040029001200390002004900590DC
:1032E00002A90748FDF76EFA002204210A20FDF723
:1032F00007FC0A20FDF7F0FB07B000BDE0440258D0
:10330000000002580008025810B516481649086017
:103310004FF4800048600021134881600721C1609C
:10332000002101614FF080714161890081610901D3
:10333000C1610021016241628162C1624FF080413E
:10334000416300218163C163016441648164C1649C
:10335000016541658165FFF7DBF908B1FDF777F895
:1033600010BD0000003001403800002000B595B0CD
:1033700000201290139014901C210BA8FCF7FCFF66
:103380002C216846FCF7F8FF3848394908600020CE
:10339000486000213648816044F61F61C160002109
:1033A000016141618161FFF71DFE08B1FDF74FF832
:1033B000002012901390149012A92D48FFF7C4FC1E
:1033C00008B1FDF744F860200B9042F210700C90A9
:1033D00000200D900E900F901090119000220BA9DC
:1033E0002348FFF747FD08B1FDF731F842F21870A6
:1033F0000C9004220BA91E48FFF73CFD08B1FDF715
:1034000026F8FA200C9008220BA91948FFF732FD84
:1034100008B1FDF71CF842F206700C9002200D90E6
:103420000C220BA91248FFF725FD08B1FDF70FF894
:103430000020009001900290039004904FF40050FF
:1034400005900020069007904FF000700890002033
:1034500009900A9069460648FFF71CFC08B1FCF782
:10346000F6FF0348FFF7D6FC15B000BD0000014091
:10347000C000002000BFFEE700BFFEE7704700006D
:103480002DE9F04104460E4600275548006800F03B
:103490000300032802D10120BDE8F08150482838FC
:1034A000006820F080604E4928390860FDF794FAE2
:1034B000054606E0FDF790FA401B022801D90320DB
:1034C000EAE7474828380068C0F3C0600028F1D117
:1034D00000BF4348006820F47C30216840EA013096
:1034E0003F490860A088401EC0F30800A168491E3B
:1034F0004FF47E4202EA41210843A189491ED201CC
:1035000002EA01410843217C491E120202EA0161DC
:10351000084333491031086000BF3148001D00687E
:1035200020F0C000616908432D49091D0860084664
:10353000006820F02000A16908432949091D08609E
:103540000846006820F01000086025481430006824
:103550004FF6F8718843E16940EAC100204914310F
:1035600008601F48001D006840F010001C49091D3C
:1035700008602EB90846006840F40020086012E098
:10358000012E08D11648001D006840F4801014492F
:10359000091D086007E01248001D006840F4001093
:1035A0000F49091D08600E482838006840F0806007
:1035B0000B4928390860FDF70FFA054606E0FDF7CC
:1035C0000BFA401B022801D9032065E7044828387C
:1035D0000068C0F3C0600028F1D038465CE7000006
:1035E000284402582DE9F04104460E46002755486C
:1035F000006800F00300032802D10120BDE8F0813B
:1036000050482838006820F080504E49283908601A
:10361000FDF7E2F9054606E0FDF7DEF9401B02285A
:1036200001D90320EAE7474828380068C0F3407012
:103630000028F1D100BF4348006820F07C70218849
:1036400040EA01503F490860A088401EC0F30800CE
:10365000A168491E4FF47E4202EA41210843A18934
:10366000491ED20102EA01410843217C491E12028F
:1036700002EA0161084333491831086000BF31484C
:10368000001D006820F44060616908432D49091D50
:1036900008600846006820F40070A16908432949C1
:1036A000091D08600846006820F4807008602548FD
:1036B0001C3000684FF6F8718843E16940EAC100A8
:1036C00020491C3108601F48001D006840F48070CC
:1036D0001C49091D08602EB90846006840F48000A6
:1036E000086012E0012E08D11648001D006840F461
:1036F00000001449091D086007E01248001D006819
:1037000040F080700F49091D08600E482838006895
:1037100040F080500B4928390860FDF75DF90546F7
:1037200006E0FDF759F9401B022801D9032065E79F
:10373000044828380068C0F340700028F1D03846AB
:103740005CE700002844025870B5044600250022BA
:103750004FF400410C48FDF733F90120FDF700F864
:10376000204600F03BF80120FCF7FAFFFF2000F0B4
:1037700035F805460120FCF7F3FF0122D10302488A
:10378000FDF71EF9284670BD0000025870B50546C9
:10379000002400224FF400410F48FDF711F928469C
:1037A00000F01CF8FF2000F019F804432402FF2069
:1037B00000F014F804432402FF2000F00FF8044343
:1037C0002402FF2000F00AF804430122D10302483A
:1037D000FDF7F6F8204670BD000002583EB50446DD
:1037E00001946FF07F40012302AA01A900900448D0
:1037F000FFF7B4F808B1FF2002909DF808003EBD25
:1038000038000020026851690268926942F008029B
:1038100003689A610268926942F0100203689A6133
:103820000268126822F0010203681A6002681269D5
:1038300040F26F339A4303681A610268926822F477
:10384000404203689A6090F88120042A0ED001F06B
:1038500020025AB1D0F8842042F08002C0F88420BF
:103860000268926942F0200203689A6190F8812010
:10387000032A0ED001F040025AB1D0F8842042F061
:103880000402C0F884200268926942F04002036892
:103890009A6101F400725AB1D0F8842042F001021A
:1038A000C0F884200268926942F4007203689A6149
:1038B00001F480725AB1D0F8842042F00802C0F8B6
:1038C00084200268926942F4807203689A6100223F
:1038D000A0F86220A0F86A20704710B501460124C4
:1038E000C86B04EB5013C868421CD01DC20802FB11
:1038F00003F010BD2DE9F04106460D4617461C4663
:10390000DDF818800BE0FDF767F8A0EB0800A04297
:1039100001D3601C00B914B90320BDE8F081306800
:1039200040692840A84201D1012000E00020B842AF
:10393000E9D00020F1E7704710B5FDF753F810BD4E
:1039400000B59DB04C210AA8FCF716FD202102A865
:10395000FCF712FD0220FDF725F900BF00200190C1
:103960002948006820F001002749086008460068DF
:1039700000F0010001902548006840F440402349D0
:1039800008600846006800F44040019000BF00BF96
:1039900000BF1E48006800F40050B0F5005FF8D189
:1039A00001200A9000040B90022013900221149130
:1039B000159140211691022117910421189102219D
:1039C00019910C211A9100211B911C910AA8FEF754
:1039D00073FA08B1FCF73BFD3F20029003200390EF
:1039E00000200490082005904020069007900001D8
:1039F000089040200990022102A8FDF7B7FF08B106
:103A0000FCF725FD1DB000BD2C04005818480258D5
:103A10003448006840F47000324908603248006859
:103A200000F00F00072806D22F48006820F00F0092
:103A3000C01D2D4908602D48006840F001002B4949
:103A4000086000202949103108602848006828498A
:103A50000840264908602448006800F00F00072845
:103A600006D92148006820F00F00C01D1E490860DB
:103A700000201E4918310860091D0860091D0860F2
:103A80001C481A49283108601B48091D08601B485A
:103A9000091D08600020091D08601848091D0860FC
:103AA0000020091D08601548091D08600020091D37
:103AB00008600E48006820F480200C49086000204F
:103AC0000A49603108600E4800686FF30F00B0F1DA
:103AD000005F02D201200B49086043F2D2000A497C
:103AE0000860704788ED00E0002000520044025852
:103AF0007FEDF6EA000202020000FF0180020101F0
:103B00000010005C088100510040005210B500F028
:103B10005FFB0120FCF724FE0F49802000F06AFAC9
:103B20000E49812000F066FA4FF06041822000F0DB
:103B300061FA0021832000F05DFA4FF000518420EB
:103B400000F058FA4FF08051852000F053FA002120
:103B5000862000F04FFA10BD002024000000491913
:103B600010B50268294B98420ED0B0F1804F0BD0AF
:103B7000274B984208D0274B984205D0264B9842B5
:103B800002D0264B984203D122F070024B681A43B0
:103B90001E4B984217D0B0F1804F14D01C4B984266
:103BA00011D01C4B98420ED01B4B98420BD01B4B94
:103BB000984208D01A4B984205D01A4B984202D02E
:103BC000194B984203D122F44072CB681A4322F079
:103BD00080034C6943EA040202608B68C3620B688D
:103BE00083620A4B98420BD00C4B984208D00C4B86
:103BF000984205D00B4B984202D00B4B984201D112
:103C00000B6903630123436110BD00000000014004
:103C10000004004000080040000C00400004014087
:103C200000400140004401400048014030B501F02F
:103C30001F05012404FA05F3046A9C430462046A24
:103C400001F01F0502FA05F52C43046230BD0000A7
:103C500030B5056A25F001050562026A436884698A
:103C6000204D2C4024F003040D682C4322F0020266
:103C70008D682A431C4DA84200D10FE01B4DA8427D
:103C800000D10BE01A4DA84200D107E0194DA8421F
:103C900000D103E0184DA84206D100BF22F008026F
:103CA000CD682A4322F004020F4DA8420BD00F4DDD
:103CB000A84208D00E4DA84205D00E4DA84202D011
:103CC0000D4DA84207D123F4807323F400734D698E
:103CD0002B438D692B43436084614D6845630262C9
:103CE00030BD00008FFFFEFF0000014000040140D6
:103CF00000400140004401400048014030B5056AE1
:103D000025F010050562026A43688469224D2C4043
:103D100024F440740D6844EA052422F020028D68E2
:103D200042EA05121D4DA84200D10FE01C4DA842E9
:103D300000D10BE01B4DA84200D100BF1A4DA84294
:103D400000D100BF194DA84207D106E022F0800241
:103D5000CD6842EA051222F04002104DA8420BD075
:103D60000F4DA84208D00F4DA84205D00E4DA842D5
:103D700002D00E4DA84209D123F4806323F40063DE
:103D80004D6943EA85038D6943EA85034360846195
:103D90004D688563026230BDFF8FFFFE0000014069
:103DA000000401400040014000440140004801403F
:103DB00030B5056A25F480750562026A4368C469F6
:103DC000224D2C4024F003040D682C4322F4007291
:103DD0008D6842EA05221E4DA84200D10FE01D4D1C
:103DE000A84200D10BE01C4DA84200D100BF1B4DE2
:103DF000A84200D100BF1A4DA84207D106E022F424
:103E00000062CD6842EA052222F48062104DA84289
:103E10000BD0104DA84208D00F4DA84205D00F4D31
:103E2000A84202D00E4DA84209D123F4805323F4B6
:103E300000534D6943EA05138D6943EA0513436056
:103E4000C4614D68C563026230BD00008FFFFEFF94
:103E500000000140000401400040014000440140D6
:103E60000048014030B5056A25F480550562036AB3
:103E70004468C269124D2A4022F440720D6842EA39
:103E8000052223F400538D6843EA05330D4DA84203
:103E90000BD00D4DA84208D00C4DA84205D00C4DBA
:103EA000A84202D00B4DA84204D124F480444D69AD
:103EB00044EA85144460C2614D680564036230BD04
:103EC000FF8FFFFE00000140000401400040014060
:103ED000004401400048014030B5056A25F48035B2
:103EE0000562026A4368446D114D2C400D682C43F5
:103EF00022F400320D8942EA05420E4DA8420BD051
:103F00000D4DA84208D00D4DA84205D00C4DA84239
:103F100002D00C4DA84204D123F480334D6943EA0A
:103F20000523436044654D688565026230BD00002D
:103F30008FFFFEFF000001400004014000400140EF
:103F4000004401400048014030B5056A25F4801561
:103F50000562026A4368446D114D2C400D6844EAC5
:103F6000052422F400120D8942EA05520D4DA842A3
:103F70000BD00D4DA84208D00C4DA84205D00C4DD9
:103F8000A84202D00B4DA84204D123F480234D69EE
:103F900043EA8523436044654D68C565026230BDD0
:103FA000FF8FFFFE0000014000040140004001407F
:103FB000004401400048014000BFFEE7024800689D
:103FC000C0F30220704700000CED00E010B500289F
:103FD00004DB0A07130E054A135406E00A07140E01
:103FE000034A00F00F031B1FD45410BD00E400E08F
:103FF00018ED00E02DE9F04705460C46E6B2C4F3A3
:104000000727C4F307484FEA146900224FF4004120
:104010000C48FCF7D5FC2846FFF7E0FB4846FFF7C5
:10402000DDFB4046FFF7DAFB3846FFF7D7FB3046AB
:10403000FFF7D4FB0122D1030248FCF7C1FCBDE825
:10404000F0870000000002589FED290AF0EE400AB8
:104050000F2101EA10710A03C0F3036102EB012290
:10406000C0F3035102EB0112C0F30341114400EE0F
:10407000101AB8EE400AF0EE400AC0F3033100EE29
:10408000101AB8EE401AF3EE001A81EE210A30EE53
:10409000201AC0F3032100EE101AB8EE400ADFED3B
:1040A000151A80EE212A31EE021AC0F3031100EE38
:1040B000101AB8EE400ADFED101A80EE212A31EE18
:1040C000021A00F00F0100EE101AB8EE400ADFED00
:1040D0000B1A80EE212A31EE020AF0EE400AB7EE0A
:1040E000E01AB5EE002B21EE021BB7EEC10B7047B4
:1040F0000000000000008043000080450000804771
:1041000010B500224FF400410548FCF759FC70201F
:10411000FFF764FB0122D1030148FCF751FC10BDFD
:1041200000000258FCF76AFCFFF70AFCFFF784F86E
:10413000FFF7EAF8FFF75AF8FFF718F9FFF7E6FC80
:10414000B520FFF701FB1C49087000211B48FCF754
:10415000CBFA40F24D63002211461848FCF7AEFA44
:104160004FF47A70FCF7FCFA00211548FEF78AFF3D
:1041700004211348FEF786FF08211148FEF782FF4D
:104180000C210F48FEF77EFF15E0FFF7B9FF00BFD7
:104190000C4800780028FBD000200A490870B020A5
:1041A000FFF7F4FA0849086008460068FFF74CFF7B
:1041B000064880ED000AE8E7000000202400002007
:1041C000C0000020010000200800002004000020A2
:1041D00010B500224FF400410548FCF7F1FB5020D8
:1041E000FFF7FCFA0122D1030148FCF7E9FB10BDFF
:1041F000000002584FF04070E1EE100A70470000D6
:10420000000001020304010203040607080900007C
:10421000304200080000002024000000D402000802
:1042200054420008240000204C070000F00200085F
:10423000000000000000000000000000000000007E
:104240000000000010000000010000000090D003FA
:044250000090D00307
:040000050800029954
:00000001FF
